{
  "_format": "hh-sol-artifact-1",
  "contractName": "Minter",
  "sourceName": "contracts/Minter.sol",
  "abi": [
    {
      "inputs": [
        {
          "internalType": "address",
          "name": "chainlinkOracleAddress",
          "type": "address"
        },
        {
          "internalType": "address",
          "name": "_tokenAddress",
          "type": "address"
        }
      ],
      "stateMutability": "nonpayable",
      "type": "constructor"
    },
    {
      "inputs": [
        {
          "internalType": "address",
          "name": "sender",
          "type": "address"
        },
        {
          "internalType": "uint256",
          "name": "tokenId",
          "type": "uint256"
        },
        {
          "internalType": "address",
          "name": "owner",
          "type": "address"
        }
      ],
      "name": "ERC721IncorrectOwner",
      "type": "error"
    },
    {
      "inputs": [
        {
          "internalType": "address",
          "name": "operator",
          "type": "address"
        },
        {
          "internalType": "uint256",
          "name": "tokenId",
          "type": "uint256"
        }
      ],
      "name": "ERC721InsufficientApproval",
      "type": "error"
    },
    {
      "inputs": [
        {
          "internalType": "address",
          "name": "approver",
          "type": "address"
        }
      ],
      "name": "ERC721InvalidApprover",
      "type": "error"
    },
    {
      "inputs": [
        {
          "internalType": "address",
          "name": "operator",
          "type": "address"
        }
      ],
      "name": "ERC721InvalidOperator",
      "type": "error"
    },
    {
      "inputs": [
        {
          "internalType": "address",
          "name": "owner",
          "type": "address"
        }
      ],
      "name": "ERC721InvalidOwner",
      "type": "error"
    },
    {
      "inputs": [
        {
          "internalType": "address",
          "name": "receiver",
          "type": "address"
        }
      ],
      "name": "ERC721InvalidReceiver",
      "type": "error"
    },
    {
      "inputs": [
        {
          "internalType": "address",
          "name": "sender",
          "type": "address"
        }
      ],
      "name": "ERC721InvalidSender",
      "type": "error"
    },
    {
      "inputs": [
        {
          "internalType": "uint256",
          "name": "tokenId",
          "type": "uint256"
        }
      ],
      "name": "ERC721NonexistentToken",
      "type": "error"
    },
    {
      "inputs": [
        {
          "internalType": "address",
          "name": "owner",
          "type": "address"
        }
      ],
      "name": "OwnableInvalidOwner",
      "type": "error"
    },
    {
      "inputs": [
        {
          "internalType": "address",
          "name": "account",
          "type": "address"
        }
      ],
      "name": "OwnableUnauthorizedAccount",
      "type": "error"
    },
    {
      "anonymous": false,
      "inputs": [
        {
          "indexed": true,
          "internalType": "address",
          "name": "owner",
          "type": "address"
        },
        {
          "indexed": true,
          "internalType": "address",
          "name": "approved",
          "type": "address"
        },
        {
          "indexed": true,
          "internalType": "uint256",
          "name": "tokenId",
          "type": "uint256"
        }
      ],
      "name": "Approval",
      "type": "event"
    },
    {
      "anonymous": false,
      "inputs": [
        {
          "indexed": true,
          "internalType": "address",
          "name": "owner",
          "type": "address"
        },
        {
          "indexed": true,
          "internalType": "address",
          "name": "operator",
          "type": "address"
        },
        {
          "indexed": false,
          "internalType": "bool",
          "name": "approved",
          "type": "bool"
        }
      ],
      "name": "ApprovalForAll",
      "type": "event"
    },
    {
      "anonymous": false,
      "inputs": [
        {
          "indexed": false,
          "internalType": "uint256",
          "name": "_fromTokenId",
          "type": "uint256"
        },
        {
          "indexed": false,
          "internalType": "uint256",
          "name": "_toTokenId",
          "type": "uint256"
        }
      ],
      "name": "BatchMetadataUpdate",
      "type": "event"
    },
    {
      "anonymous": false,
      "inputs": [
        {
          "indexed": false,
          "internalType": "uint256",
          "name": "_tokenId",
          "type": "uint256"
        }
      ],
      "name": "MetadataUpdate",
      "type": "event"
    },
    {
      "anonymous": false,
      "inputs": [
        {
          "indexed": true,
          "internalType": "address",
          "name": "previousOwner",
          "type": "address"
        },
        {
          "indexed": true,
          "internalType": "address",
          "name": "newOwner",
          "type": "address"
        }
      ],
      "name": "OwnershipTransferred",
      "type": "event"
    },
    {
      "anonymous": false,
      "inputs": [
        {
          "indexed": true,
          "internalType": "address",
          "name": "from",
          "type": "address"
        },
        {
          "indexed": true,
          "internalType": "address",
          "name": "to",
          "type": "address"
        },
        {
          "indexed": true,
          "internalType": "uint256",
          "name": "tokenId",
          "type": "uint256"
        }
      ],
      "name": "Transfer",
      "type": "event"
    },
    {
      "inputs": [
        {
          "internalType": "address",
          "name": "to",
          "type": "address"
        },
        {
          "internalType": "uint256",
          "name": "tokenId",
          "type": "uint256"
        }
      ],
      "name": "approve",
      "outputs": [],
      "stateMutability": "nonpayable",
      "type": "function"
    },
    {
      "inputs": [
        {
          "internalType": "address",
          "name": "owner",
          "type": "address"
        }
      ],
      "name": "balanceOf",
      "outputs": [
        {
          "internalType": "uint256",
          "name": "",
          "type": "uint256"
        }
      ],
      "stateMutability": "view",
      "type": "function"
    },
    {
      "inputs": [
        {
          "internalType": "uint256",
          "name": "tokenId",
          "type": "uint256"
        }
      ],
      "name": "burn",
      "outputs": [],
      "stateMutability": "nonpayable",
      "type": "function"
    },
    {
      "inputs": [
        {
          "internalType": "uint256",
          "name": "tokenId",
          "type": "uint256"
        }
      ],
      "name": "calculatePayoff",
      "outputs": [
        {
          "internalType": "uint256",
          "name": "",
          "type": "uint256"
        }
      ],
      "stateMutability": "view",
      "type": "function"
    },
    {
      "inputs": [],
      "name": "deposit",
      "outputs": [],
      "stateMutability": "payable",
      "type": "function"
    },
    {
      "inputs": [],
      "name": "executePayout",
      "outputs": [],
      "stateMutability": "nonpayable",
      "type": "function"
    },
    {
      "inputs": [
        {
          "internalType": "uint256",
          "name": "tokenId",
          "type": "uint256"
        }
      ],
      "name": "exists",
      "outputs": [
        {
          "internalType": "bool",
          "name": "",
          "type": "bool"
        }
      ],
      "stateMutability": "view",
      "type": "function"
    },
    {
      "inputs": [
        {
          "internalType": "uint256",
          "name": "tokenId",
          "type": "uint256"
        }
      ],
      "name": "getApproved",
      "outputs": [
        {
          "internalType": "address",
          "name": "",
          "type": "address"
        }
      ],
      "stateMutability": "view",
      "type": "function"
    },
    {
      "inputs": [],
      "name": "getLatestPriceEURUSD",
      "outputs": [
        {
          "internalType": "int256",
          "name": "",
          "type": "int256"
        }
      ],
      "stateMutability": "view",
      "type": "function"
    },
    {
      "inputs": [],
      "name": "getNextTokenId",
      "outputs": [
        {
          "internalType": "uint256",
          "name": "",
          "type": "uint256"
        }
      ],
      "stateMutability": "view",
      "type": "function"
    },
    {
      "inputs": [
        {
          "internalType": "uint256",
          "name": "tokenId",
          "type": "uint256"
        }
      ],
      "name": "getOptionDetails",
      "outputs": [
        {
          "internalType": "uint256",
          "name": "lowerStrikePrice",
          "type": "uint256"
        },
        {
          "internalType": "uint256",
          "name": "higherStrikePrice",
          "type": "uint256"
        },
        {
          "internalType": "uint256",
          "name": "premium",
          "type": "uint256"
        },
        {
          "internalType": "uint256",
          "name": "multiplier",
          "type": "uint256"
        },
        {
          "internalType": "uint256",
          "name": "expiryDate",
          "type": "uint256"
        }
      ],
      "stateMutability": "view",
      "type": "function"
    },
    {
      "inputs": [
        {
          "internalType": "address",
          "name": "owner",
          "type": "address"
        },
        {
          "internalType": "address",
          "name": "operator",
          "type": "address"
        }
      ],
      "name": "isApprovedForAll",
      "outputs": [
        {
          "internalType": "bool",
          "name": "",
          "type": "bool"
        }
      ],
      "stateMutability": "view",
      "type": "function"
    },
    {
      "inputs": [],
      "name": "name",
      "outputs": [
        {
          "internalType": "string",
          "name": "",
          "type": "string"
        }
      ],
      "stateMutability": "view",
      "type": "function"
    },
    {
      "inputs": [],
      "name": "numberOfOptions",
      "outputs": [
        {
          "internalType": "uint256",
          "name": "",
          "type": "uint256"
        }
      ],
      "stateMutability": "view",
      "type": "function"
    },
    {
      "inputs": [
        {
          "internalType": "uint256",
          "name": "",
          "type": "uint256"
        }
      ],
      "name": "options",
      "outputs": [
        {
          "internalType": "uint256",
          "name": "lowerStrikePrice",
          "type": "uint256"
        },
        {
          "internalType": "uint256",
          "name": "higherStrikePrice",
          "type": "uint256"
        },
        {
          "internalType": "uint256",
          "name": "premium",
          "type": "uint256"
        },
        {
          "internalType": "uint256",
          "name": "multiplier",
          "type": "uint256"
        },
        {
          "internalType": "uint256",
          "name": "expiryDate",
          "type": "uint256"
        },
        {
          "internalType": "uint256",
          "name": "potentialGain",
          "type": "uint256"
        },
        {
          "internalType": "bool",
          "name": "isActive",
          "type": "bool"
        }
      ],
      "stateMutability": "view",
      "type": "function"
    },
    {
      "inputs": [],
      "name": "owner",
      "outputs": [
        {
          "internalType": "address",
          "name": "",
          "type": "address"
        }
      ],
      "stateMutability": "view",
      "type": "function"
    },
    {
      "inputs": [
        {
          "internalType": "uint256",
          "name": "tokenId",
          "type": "uint256"
        }
      ],
      "name": "ownerOf",
      "outputs": [
        {
          "internalType": "address",
          "name": "",
          "type": "address"
        }
      ],
      "stateMutability": "view",
      "type": "function"
    },
    {
      "inputs": [],
      "name": "renounceOwnership",
      "outputs": [],
      "stateMutability": "nonpayable",
      "type": "function"
    },
    {
      "inputs": [
        {
          "internalType": "address",
          "name": "to",
          "type": "address"
        },
        {
          "internalType": "string",
          "name": "uri",
          "type": "string"
        },
        {
          "internalType": "uint256",
          "name": "lowerStrikePrice",
          "type": "uint256"
        },
        {
          "internalType": "uint256",
          "name": "higherStrikePrice",
          "type": "uint256"
        },
        {
          "internalType": "uint256",
          "name": "premium",
          "type": "uint256"
        },
        {
          "internalType": "uint256",
          "name": "multiplier",
          "type": "uint256"
        },
        {
          "internalType": "uint256",
          "name": "expiryDate",
          "type": "uint256"
        },
        {
          "internalType": "uint256",
          "name": "potentialGain",
          "type": "uint256"
        }
      ],
      "name": "safeMint",
      "outputs": [],
      "stateMutability": "nonpayable",
      "type": "function"
    },
    {
      "inputs": [
        {
          "internalType": "address",
          "name": "from",
          "type": "address"
        },
        {
          "internalType": "address",
          "name": "to",
          "type": "address"
        },
        {
          "internalType": "uint256",
          "name": "tokenId",
          "type": "uint256"
        }
      ],
      "name": "safeTransferFrom",
      "outputs": [],
      "stateMutability": "nonpayable",
      "type": "function"
    },
    {
      "inputs": [
        {
          "internalType": "address",
          "name": "from",
          "type": "address"
        },
        {
          "internalType": "address",
          "name": "to",
          "type": "address"
        },
        {
          "internalType": "uint256",
          "name": "tokenId",
          "type": "uint256"
        },
        {
          "internalType": "bytes",
          "name": "data",
          "type": "bytes"
        }
      ],
      "name": "safeTransferFrom",
      "outputs": [],
      "stateMutability": "nonpayable",
      "type": "function"
    },
    {
      "inputs": [
        {
          "internalType": "address",
          "name": "recipient",
          "type": "address"
        },
        {
          "internalType": "uint256",
          "name": "amount",
          "type": "uint256"
        }
      ],
      "name": "sendToken",
      "outputs": [],
      "stateMutability": "nonpayable",
      "type": "function"
    },
    {
      "inputs": [
        {
          "internalType": "address",
          "name": "operator",
          "type": "address"
        },
        {
          "internalType": "bool",
          "name": "approved",
          "type": "bool"
        }
      ],
      "name": "setApprovalForAll",
      "outputs": [],
      "stateMutability": "nonpayable",
      "type": "function"
    },
    {
      "inputs": [
        {
          "internalType": "bytes4",
          "name": "interfaceId",
          "type": "bytes4"
        }
      ],
      "name": "supportsInterface",
      "outputs": [
        {
          "internalType": "bool",
          "name": "",
          "type": "bool"
        }
      ],
      "stateMutability": "view",
      "type": "function"
    },
    {
      "inputs": [],
      "name": "symbol",
      "outputs": [
        {
          "internalType": "string",
          "name": "",
          "type": "string"
        }
      ],
      "stateMutability": "view",
      "type": "function"
    },
    {
      "inputs": [
        {
          "internalType": "uint256",
          "name": "tokenId",
          "type": "uint256"
        }
      ],
      "name": "tokenURI",
      "outputs": [
        {
          "internalType": "string",
          "name": "",
          "type": "string"
        }
      ],
      "stateMutability": "view",
      "type": "function"
    },
    {
      "inputs": [
        {
          "internalType": "address",
          "name": "from",
          "type": "address"
        },
        {
          "internalType": "address",
          "name": "to",
          "type": "address"
        },
        {
          "internalType": "uint256",
          "name": "tokenId",
          "type": "uint256"
        }
      ],
      "name": "transferFrom",
      "outputs": [],
      "stateMutability": "nonpayable",
      "type": "function"
    },
    {
      "inputs": [
        {
          "internalType": "address",
          "name": "newOwner",
          "type": "address"
        }
      ],
      "name": "transferOwnership",
      "outputs": [],
      "stateMutability": "nonpayable",
      "type": "function"
    },
    {
      "inputs": [
        {
          "internalType": "uint256",
          "name": "amount",
          "type": "uint256"
        }
      ],
      "name": "withdraw",
      "outputs": [],
      "stateMutability": "nonpayable",
      "type": "function"
    },
    {
      "inputs": [],
      "name": "withdrawAllTokens",
      "outputs": [],
      "stateMutability": "nonpayable",
      "type": "function"
    }
  ],
  "bytecode": "0x60806040523480156200001157600080fd5b506040516200446c3803806200446c833981810160405281019062000037919062000313565b336040518060400160405280600581526020017f4d794e46540000000000000000000000000000000000000000000000000000008152506040518060400160405280600381526020017f4e465400000000000000000000000000000000000000000000000000000000008152508160009081620000b59190620005d4565b508060019081620000c79190620005d4565b505050600073ffffffffffffffffffffffffffffffffffffffff168173ffffffffffffffffffffffffffffffffffffffff16036200013f5760006040517f1e4fbdf7000000000000000000000000000000000000000000000000000000008152600401620001369190620006cc565b60405180910390fd5b6200015081620001e360201b60201c565b5081600960006101000a81548173ffffffffffffffffffffffffffffffffffffffff021916908373ffffffffffffffffffffffffffffffffffffffff16021790555080600a60006101000a81548173ffffffffffffffffffffffffffffffffffffffff021916908373ffffffffffffffffffffffffffffffffffffffff1602179055506000600b819055505050620006e9565b6000600760009054906101000a900473ffffffffffffffffffffffffffffffffffffffff16905081600760006101000a81548173ffffffffffffffffffffffffffffffffffffffff021916908373ffffffffffffffffffffffffffffffffffffffff1602179055508173ffffffffffffffffffffffffffffffffffffffff168173ffffffffffffffffffffffffffffffffffffffff167f8be0079c531659141344cd1fd0a4f28419497f9722a3daafe3b4186f6b6457e060405160405180910390a35050565b600080fd5b600073ffffffffffffffffffffffffffffffffffffffff82169050919050565b6000620002db82620002ae565b9050919050565b620002ed81620002ce565b8114620002f957600080fd5b50565b6000815190506200030d81620002e2565b92915050565b600080604083850312156200032d576200032c620002a9565b5b60006200033d85828601620002fc565b92505060206200035085828601620002fc565b9150509250929050565b600081519050919050565b7f4e487b7100000000000000000000000000000000000000000000000000000000600052604160045260246000fd5b7f4e487b7100000000000000000000000000000000000000000000000000000000600052602260045260246000fd5b60006002820490506001821680620003dc57607f821691505b602082108103620003f257620003f162000394565b5b50919050565b60008190508160005260206000209050919050565b60006020601f8301049050919050565b600082821b905092915050565b6000600883026200045c7fffffffffffffffffffffffffffffffffffffffffffffffffffffffffffffffff826200041d565b6200046886836200041d565b95508019841693508086168417925050509392505050565b6000819050919050565b6000819050919050565b6000620004b5620004af620004a98462000480565b6200048a565b62000480565b9050919050565b6000819050919050565b620004d18362000494565b620004e9620004e082620004bc565b8484546200042a565b825550505050565b600090565b62000500620004f1565b6200050d818484620004c6565b505050565b5b81811015620005355762000529600082620004f6565b60018101905062000513565b5050565b601f82111562000584576200054e81620003f8565b62000559846200040d565b8101602085101562000569578190505b6200058162000578856200040d565b83018262000512565b50505b505050565b600082821c905092915050565b6000620005a96000198460080262000589565b1980831691505092915050565b6000620005c4838362000596565b9150826002028217905092915050565b620005df826200035a565b67ffffffffffffffff811115620005fb57620005fa62000365565b5b620006078254620003c3565b6200061482828562000539565b600060209050601f8311600181146200064c576000841562000637578287015190505b620006438582620005b6565b865550620006b3565b601f1984166200065c86620003f8565b60005b8281101562000686578489015182556001820191506020850194506020810190506200065f565b86831015620006a65784890151620006a2601f89168262000596565b8355505b6001600288020188555050505b505050505050565b620006c681620002ce565b82525050565b6000602082019050620006e36000830184620006bb565b92915050565b613d7380620006f96000396000f3fe6080604052600436106101cd5760003560e01c80634f558e79116100f757806395d89b4111610095578063caa0f92a11610064578063caa0f92a1461068e578063d0e30db0146106b9578063e985e9c5146106c3578063f2fde38b14610700576101cd565b806395d89b41146105d4578063a22cb465146105ff578063b88d4fde14610628578063c87b56dd14610651576101cd565b8063715018a6116100d1578063715018a614610550578063791c43321461056757806387ed3ecf1461057e5780638da5cb5b146105a9576101cd565b80634f558e79146104995780636352211e146104d657806370a0823114610513576101cd565b806326ff8daa1161016f578063409e22051161013e578063409e2205146103db578063412664ae1461041e57806342842e0e1461044757806342966c6814610470576101cd565b806326ff8daa1461032f578063280da6fa1461035a5780632e1a7d4d146103715780633be146fe1461039a576101cd565b8063081812fc116101ab578063081812fc14610277578063095ea7b3146102b45780630b9f2724146102dd57806323b872dd14610306576101cd565b806301ffc9a7146101d257806306fdde031461020f57806307f03a961461023a575b600080fd5b3480156101de57600080fd5b506101f960048036038101906101f49190612a28565b610729565b6040516102069190612a70565b60405180910390f35b34801561021b57600080fd5b5061022461073b565b6040516102319190612b1b565b60405180910390f35b34801561024657600080fd5b50610261600480360381019061025c9190612b73565b6107cd565b60405161026e9190612baf565b60405180910390f35b34801561028357600080fd5b5061029e60048036038101906102999190612b73565b6108dd565b6040516102ab9190612c0b565b60405180910390f35b3480156102c057600080fd5b506102db60048036038101906102d69190612c52565b6108f9565b005b3480156102e957600080fd5b5061030460048036038101906102ff9190612dc7565b61090f565b005b34801561031257600080fd5b5061032d60048036038101906103289190612e99565b610a52565b005b34801561033b57600080fd5b50610344610b54565b6040516103519190612f05565b60405180910390f35b34801561036657600080fd5b5061036f610bf5565b005b34801561037d57600080fd5b5061039860048036038101906103939190612b73565b610d67565b005b3480156103a657600080fd5b506103c160048036038101906103bc9190612b73565b610e69565b6040516103d2959493929190612f20565b60405180910390f35b3480156103e757600080fd5b5061040260048036038101906103fd9190612b73565b610f5f565b6040516104159796959493929190612f73565b60405180910390f35b34801561042a57600080fd5b5061044560048036038101906104409190612c52565b610fae565b005b34801561045357600080fd5b5061046e60048036038101906104699190612e99565b611115565b005b34801561047c57600080fd5b5061049760048036038101906104929190612b73565b611135565b005b3480156104a557600080fd5b506104c060048036038101906104bb9190612b73565b61114c565b6040516104cd9190612a70565b60405180910390f35b3480156104e257600080fd5b506104fd60048036038101906104f89190612b73565b6111d9565b60405161050a9190612c0b565b60405180910390f35b34801561051f57600080fd5b5061053a60048036038101906105359190612fe2565b6111eb565b6040516105479190612baf565b60405180910390f35b34801561055c57600080fd5b506105656112a5565b005b34801561057357600080fd5b5061057c6112b9565b005b34801561058a57600080fd5b506105936115a4565b6040516105a09190612baf565b60405180910390f35b3480156105b557600080fd5b506105be6115aa565b6040516105cb9190612c0b565b60405180910390f35b3480156105e057600080fd5b506105e96115d4565b6040516105f69190612b1b565b60405180910390f35b34801561060b57600080fd5b506106266004803603810190610621919061303b565b611666565b005b34801561063457600080fd5b5061064f600480360381019061064a919061311c565b61167c565b005b34801561065d57600080fd5b5061067860048036038101906106739190612b73565b611699565b6040516106859190612b1b565b60405180910390f35b34801561069a57600080fd5b506106a36116ab565b6040516106b09190612baf565b60405180910390f35b6106c16116b5565b005b3480156106cf57600080fd5b506106ea60048036038101906106e5919061319f565b6116bf565b6040516106f79190612a70565b60405180910390f35b34801561070c57600080fd5b5061072760048036038101906107229190612fe2565b611753565b005b6000610734826117d9565b9050919050565b60606000805461074a9061320e565b80601f01602080910402602001604051908101604052809291908181526020018280546107769061320e565b80156107c35780601f10610798576101008083540402835291602001916107c3565b820191906000526020600020905b8154815290600101906020018083116107a657829003601f168201915b5050505050905090565b600080600d60008481526020019081526020016000206040518060e00160405290816000820154815260200160018201548152602001600282015481526020016003820154815260200160048201548152602001600582015481526020016006820160009054906101000a900460ff16151515158152505090506000610851610b54565b905060008260000151821161086957600090506108d2565b826000015182118015610880575082602001518211155b156108ab57826060015183600001518361089a919061326e565b6108a491906132a2565b90506108d1565b8260600151836000015184602001516108c4919061326e565b6108ce91906132a2565b90505b5b809350505050919050565b60006108e88261183a565b506108f2826118c2565b9050919050565b61090b82826109066118ff565b611907565b5050565b610917611919565b60006008600081548092919061092c906132e4565b91905055905033600c60006101000a81548173ffffffffffffffffffffffffffffffffffffffff021916908373ffffffffffffffffffffffffffffffffffffffff16021790555061097d89826119a0565b61098781896119be565b6040518060e0016040528088815260200187815260200186815260200185815260200184815260200183815260200160011515815250600d6000838152602001908152602001600020600082015181600001556020820151816001015560408201518160020155606082015181600301556080820151816004015560a0820151816005015560c08201518160060160006101000a81548160ff021916908315150217905550905050600b6000815480929190610a42906132e4565b9190505550505050505050505050565b600073ffffffffffffffffffffffffffffffffffffffff168273ffffffffffffffffffffffffffffffffffffffff1603610ac45760006040517f64a0ae92000000000000000000000000000000000000000000000000000000008152600401610abb9190612c0b565b60405180910390fd5b6000610ad88383610ad36118ff565b611a1a565b90508373ffffffffffffffffffffffffffffffffffffffff168173ffffffffffffffffffffffffffffffffffffffff1614610b4e578382826040517f64283d7b000000000000000000000000000000000000000000000000000000008152600401610b459392919061332c565b60405180910390fd5b50505050565b600080600960009054906101000a900473ffffffffffffffffffffffffffffffffffffffff1673ffffffffffffffffffffffffffffffffffffffff1663feaf968c6040518163ffffffff1660e01b815260040160a060405180830381865afa158015610bc4573d6000803e3d6000fd5b505050506040513d601f19601f82011682018060405250810190610be891906133e6565b5050509150508091505090565b6000600a60009054906101000a900473ffffffffffffffffffffffffffffffffffffffff16905060008173ffffffffffffffffffffffffffffffffffffffff166370a08231306040518263ffffffff1660e01b8152600401610c579190612c0b565b602060405180830381865afa158015610c74573d6000803e3d6000fd5b505050506040513d601f19601f82011682018060405250810190610c989190613461565b905060008111610cdd576040517f08c379a0000000000000000000000000000000000000000000000000000000008152600401610cd4906134da565b60405180910390fd5b8173ffffffffffffffffffffffffffffffffffffffff1663a9059cbb610d016115aa565b836040518363ffffffff1660e01b8152600401610d1f9291906134fa565b6020604051808303816000875af1158015610d3e573d6000803e3d6000fd5b505050506040513d601f19601f82011682018060405250810190610d629190613538565b505050565b610d6f611919565b80471015610db2576040517f08c379a0000000000000000000000000000000000000000000000000000000008152600401610da9906135b1565b60405180910390fd5b6000610dbc6115aa565b73ffffffffffffffffffffffffffffffffffffffff1682604051610ddf90613602565b60006040518083038185875af1925050503d8060008114610e1c576040519150601f19603f3d011682016040523d82523d6000602084013e610e21565b606091505b5050905080610e65576040517f08c379a0000000000000000000000000000000000000000000000000000000008152600401610e5c90613663565b60405180910390fd5b5050565b6000806000806000610e7a8661114c565b610eb9576040517f08c379a0000000000000000000000000000000000000000000000000000000008152600401610eb0906136cf565b60405180910390fd5b6000600d60008881526020019081526020016000206040518060e00160405290816000820154815260200160018201548152602001600282015481526020016003820154815260200160048201548152602001600582015481526020016006820160009054906101000a900460ff161515151581525050905080600001518160200151826040015183606001518460800151955095509550955095505091939590929450565b600d6020528060005260406000206000915090508060000154908060010154908060020154908060030154908060040154908060050154908060060160009054906101000a900460ff16905087565b6000600a60009054906101000a900473ffffffffffffffffffffffffffffffffffffffff169050818173ffffffffffffffffffffffffffffffffffffffff166370a08231306040518263ffffffff1660e01b815260040161100f9190612c0b565b602060405180830381865afa15801561102c573d6000803e3d6000fd5b505050506040513d601f19601f820116820180604052508101906110509190613461565b1015611091576040517f08c379a00000000000000000000000000000000000000000000000000000000081526004016110889061373b565b60405180910390fd5b8073ffffffffffffffffffffffffffffffffffffffff1663a9059cbb84846040518363ffffffff1660e01b81526004016110cc9291906134fa565b6020604051808303816000875af11580156110eb573d6000803e3d6000fd5b505050506040513d601f19601f8201168201806040525081019061110f9190613538565b50505050565b6111308383836040518060200160405280600081525061167c565b505050565b6111486000826111436118ff565b611a1a565b5050565b60003073ffffffffffffffffffffffffffffffffffffffff16636352211e836040518263ffffffff1660e01b81526004016111879190612baf565b602060405180830381865afa9250505080156111c157506040513d601f19601f820116820180604052508101906111be9190613770565b60015b6111ce57600090506111d4565b50600190505b919050565b60006111e48261183a565b9050919050565b60008073ffffffffffffffffffffffffffffffffffffffff168273ffffffffffffffffffffffffffffffffffffffff160361125e5760006040517f89c62b640000000000000000000000000000000000000000000000000000000081526004016112559190612c0b565b60405180910390fd5b600360008373ffffffffffffffffffffffffffffffffffffffff1673ffffffffffffffffffffffffffffffffffffffff168152602001908152602001600020549050919050565b6112ad611919565b6112b76000611c34565b565b6000600a60009054906101000a900473ffffffffffffffffffffffffffffffffffffffff16905060005b600b548110156115a057600d600082815260200190815260200160002060060160009054906101000a900460ff1680156113325750600d60008281526020019081526020016000206004015442115b1561158d5760011515600d600083815260200190815260200160002060060160009054906101000a900460ff161515146113a1576040517f08c379a0000000000000000000000000000000000000000000000000000000008152600401611398906137e9565b60405180910390fd5b600d6000828152602001908152602001600020600401544210156113fa576040517f08c379a00000000000000000000000000000000000000000000000000000000081526004016113f190613855565b60405180910390fd5b6000600d600083815260200190815260200160002060060160006101000a81548160ff0219169083151502179055506000611434826107cd565b905060008111611479576040517f08c379a0000000000000000000000000000000000000000000000000000000008152600401611470906138c1565b60405180910390fd5b6000611484836111d9565b9050600073ffffffffffffffffffffffffffffffffffffffff168173ffffffffffffffffffffffffffffffffffffffff16036114f5576040517f08c379a00000000000000000000000000000000000000000000000000000000081526004016114ec9061392d565b60405180910390fd5b6114ff8183610fae565b60008473ffffffffffffffffffffffffffffffffffffffff166370a08231306040518263ffffffff1660e01b815260040161153a9190612c0b565b602060405180830381865afa158015611557573d6000803e3d6000fd5b505050506040513d601f19601f8201168201806040525081019061157b9190613461565b111561158a57611589610bf5565b5b50505b8080611598906132e4565b9150506112e3565b5050565b600b5481565b6000600760009054906101000a900473ffffffffffffffffffffffffffffffffffffffff16905090565b6060600180546115e39061320e565b80601f016020809104026020016040519081016040528092919081815260200182805461160f9061320e565b801561165c5780601f106116315761010080835404028352916020019161165c565b820191906000526020600020905b81548152906001019060200180831161163f57829003601f168201915b5050505050905090565b6116786116716118ff565b8383611cfa565b5050565b611687848484610a52565b61169384848484611e69565b50505050565b60606116a482612020565b9050919050565b6000600854905090565b6116bd611919565b565b6000600560008473ffffffffffffffffffffffffffffffffffffffff1673ffffffffffffffffffffffffffffffffffffffff16815260200190815260200160002060008373ffffffffffffffffffffffffffffffffffffffff1673ffffffffffffffffffffffffffffffffffffffff16815260200190815260200160002060009054906101000a900460ff16905092915050565b61175b611919565b600073ffffffffffffffffffffffffffffffffffffffff168173ffffffffffffffffffffffffffffffffffffffff16036117cd5760006040517f1e4fbdf70000000000000000000000000000000000000000000000000000000081526004016117c49190612c0b565b60405180910390fd5b6117d681611c34565b50565b6000634906490660e01b7bffffffffffffffffffffffffffffffffffffffffffffffffffffffff1916827bffffffffffffffffffffffffffffffffffffffffffffffffffffffff19161480611833575061183282612133565b5b9050919050565b60008061184683612215565b9050600073ffffffffffffffffffffffffffffffffffffffff168173ffffffffffffffffffffffffffffffffffffffff16036118b957826040517f7e2732890000000000000000000000000000000000000000000000000000000081526004016118b09190612baf565b60405180910390fd5b80915050919050565b60006004600083815260200190815260200160002060009054906101000a900473ffffffffffffffffffffffffffffffffffffffff169050919050565b600033905090565b6119148383836001612252565b505050565b6119216118ff565b73ffffffffffffffffffffffffffffffffffffffff1661193f6115aa565b73ffffffffffffffffffffffffffffffffffffffff161461199e576119626118ff565b6040517f118cdaa70000000000000000000000000000000000000000000000000000000081526004016119959190612c0b565b60405180910390fd5b565b6119ba828260405180602001604052806000815250612417565b5050565b806006600084815260200190815260200160002090816119de9190613af9565b507ff8e1a15aba9398e019f0b49df1a4fde98ee17ae345cb5f6b5e2c27f5033e8ce782604051611a0e9190612baf565b60405180910390a15050565b600080611a2684612215565b9050600073ffffffffffffffffffffffffffffffffffffffff168373ffffffffffffffffffffffffffffffffffffffff1614611a6857611a67818486612433565b5b600073ffffffffffffffffffffffffffffffffffffffff168173ffffffffffffffffffffffffffffffffffffffff1614611af957611aaa600085600080612252565b6001600360008373ffffffffffffffffffffffffffffffffffffffff1673ffffffffffffffffffffffffffffffffffffffff168152602001908152602001600020600082825403925050819055505b600073ffffffffffffffffffffffffffffffffffffffff168573ffffffffffffffffffffffffffffffffffffffff1614611b7c576001600360008773ffffffffffffffffffffffffffffffffffffffff1673ffffffffffffffffffffffffffffffffffffffff168152602001908152602001600020600082825401925050819055505b846002600086815260200190815260200160002060006101000a81548173ffffffffffffffffffffffffffffffffffffffff021916908373ffffffffffffffffffffffffffffffffffffffff160217905550838573ffffffffffffffffffffffffffffffffffffffff168273ffffffffffffffffffffffffffffffffffffffff167fddf252ad1be2c89b69c2b068fc378daa952ba7f163c4a11628f55a4df523b3ef60405160405180910390a4809150509392505050565b6000600760009054906101000a900473ffffffffffffffffffffffffffffffffffffffff16905081600760006101000a81548173ffffffffffffffffffffffffffffffffffffffff021916908373ffffffffffffffffffffffffffffffffffffffff1602179055508173ffffffffffffffffffffffffffffffffffffffff168173ffffffffffffffffffffffffffffffffffffffff167f8be0079c531659141344cd1fd0a4f28419497f9722a3daafe3b4186f6b6457e060405160405180910390a35050565b600073ffffffffffffffffffffffffffffffffffffffff168273ffffffffffffffffffffffffffffffffffffffff1603611d6b57816040517f5b08ba18000000000000000000000000000000000000000000000000000000008152600401611d629190612c0b565b60405180910390fd5b80600560008573ffffffffffffffffffffffffffffffffffffffff1673ffffffffffffffffffffffffffffffffffffffff16815260200190815260200160002060008473ffffffffffffffffffffffffffffffffffffffff1673ffffffffffffffffffffffffffffffffffffffff16815260200190815260200160002060006101000a81548160ff0219169083151502179055508173ffffffffffffffffffffffffffffffffffffffff168373ffffffffffffffffffffffffffffffffffffffff167f17307eab39ab6107e8899845ad3d59bd9653f200f220920489ca2b5937696c3183604051611e5c9190612a70565b60405180910390a3505050565b60008373ffffffffffffffffffffffffffffffffffffffff163b111561201a578273ffffffffffffffffffffffffffffffffffffffff1663150b7a02611ead6118ff565b8685856040518563ffffffff1660e01b8152600401611ecf9493929190613c20565b6020604051808303816000875af1925050508015611f0b57506040513d601f19601f82011682018060405250810190611f089190613c81565b60015b611f8f573d8060008114611f3b576040519150601f19603f3d011682016040523d82523d6000602084013e611f40565b606091505b506000815103611f8757836040517f64a0ae92000000000000000000000000000000000000000000000000000000008152600401611f7e9190612c0b565b60405180910390fd5b805181602001fd5b63150b7a0260e01b7bffffffffffffffffffffffffffffffffffffffffffffffffffffffff1916817bffffffffffffffffffffffffffffffffffffffffffffffffffffffff19161461201857836040517f64a0ae9200000000000000000000000000000000000000000000000000000000815260040161200f9190612c0b565b60405180910390fd5b505b50505050565b606061202b8261183a565b50600060066000848152602001908152602001600020805461204c9061320e565b80601f01602080910402602001604051908101604052809291908181526020018280546120789061320e565b80156120c55780601f1061209a576101008083540402835291602001916120c5565b820191906000526020600020905b8154815290600101906020018083116120a857829003601f168201915b5050505050905060006120d66124f7565b905060008151036120eb57819250505061212e565b600082511115612120578082604051602001612108929190613cea565b6040516020818303038152906040529250505061212e565b6121298461250e565b925050505b919050565b60007f80ac58cd000000000000000000000000000000000000000000000000000000007bffffffffffffffffffffffffffffffffffffffffffffffffffffffff1916827bffffffffffffffffffffffffffffffffffffffffffffffffffffffff191614806121fe57507f5b5e139f000000000000000000000000000000000000000000000000000000007bffffffffffffffffffffffffffffffffffffffffffffffffffffffff1916827bffffffffffffffffffffffffffffffffffffffffffffffffffffffff1916145b8061220e575061220d82612577565b5b9050919050565b60006002600083815260200190815260200160002060009054906101000a900473ffffffffffffffffffffffffffffffffffffffff169050919050565b808061228b5750600073ffffffffffffffffffffffffffffffffffffffff168273ffffffffffffffffffffffffffffffffffffffff1614155b156123bf57600061229b8461183a565b9050600073ffffffffffffffffffffffffffffffffffffffff168373ffffffffffffffffffffffffffffffffffffffff161415801561230657508273ffffffffffffffffffffffffffffffffffffffff168173ffffffffffffffffffffffffffffffffffffffff1614155b8015612319575061231781846116bf565b155b1561235b57826040517fa9fbf51f0000000000000000000000000000000000000000000000000000000081526004016123529190612c0b565b60405180910390fd5b81156123bd57838573ffffffffffffffffffffffffffffffffffffffff168273ffffffffffffffffffffffffffffffffffffffff167f8c5be1e5ebec7d5bd14f71427d1e84f3dd0314c0f7b2291e5b200ac8c7c3b92560405160405180910390a45b505b836004600085815260200190815260200160002060006101000a81548173ffffffffffffffffffffffffffffffffffffffff021916908373ffffffffffffffffffffffffffffffffffffffff16021790555050505050565b61242183836125e1565b61242e6000848484611e69565b505050565b61243e8383836126da565b6124f257600073ffffffffffffffffffffffffffffffffffffffff168373ffffffffffffffffffffffffffffffffffffffff16036124b357806040517f7e2732890000000000000000000000000000000000000000000000000000000081526004016124aa9190612baf565b60405180910390fd5b81816040517f177e802f0000000000000000000000000000000000000000000000000000000081526004016124e99291906134fa565b60405180910390fd5b505050565b606060405180602001604052806000815250905090565b60606125198261183a565b5060006125246124f7565b90506000815111612544576040518060200160405280600081525061256f565b8061254e8461279b565b60405160200161255f929190613cea565b6040516020818303038152906040525b915050919050565b60007f01ffc9a7000000000000000000000000000000000000000000000000000000007bffffffffffffffffffffffffffffffffffffffffffffffffffffffff1916827bffffffffffffffffffffffffffffffffffffffffffffffffffffffff1916149050919050565b600073ffffffffffffffffffffffffffffffffffffffff168273ffffffffffffffffffffffffffffffffffffffff16036126535760006040517f64a0ae9200000000000000000000000000000000000000000000000000000000815260040161264a9190612c0b565b60405180910390fd5b600061266183836000611a1a565b9050600073ffffffffffffffffffffffffffffffffffffffff168173ffffffffffffffffffffffffffffffffffffffff16146126d55760006040517f73c6ac6e0000000000000000000000000000000000000000000000000000000081526004016126cc9190612c0b565b60405180910390fd5b505050565b60008073ffffffffffffffffffffffffffffffffffffffff168373ffffffffffffffffffffffffffffffffffffffff161415801561279257508273ffffffffffffffffffffffffffffffffffffffff168473ffffffffffffffffffffffffffffffffffffffff161480612753575061275284846116bf565b5b8061279157508273ffffffffffffffffffffffffffffffffffffffff16612779836118c2565b73ffffffffffffffffffffffffffffffffffffffff16145b5b90509392505050565b6060600060016127aa84612869565b01905060008167ffffffffffffffff8111156127c9576127c8612c9c565b5b6040519080825280601f01601f1916602001820160405280156127fb5781602001600182028036833780820191505090505b509050600082602001820190505b60011561285e578080600190039150507f3031323334353637383961626364656600000000000000000000000000000000600a86061a8153600a858161285257612851613d0e565b5b04945060008503612809575b819350505050919050565b600080600090507a184f03e93ff9f4daa797ed6e38ed64bf6a1f01000000000000000083106128c7577a184f03e93ff9f4daa797ed6e38ed64bf6a1f01000000000000000083816128bd576128bc613d0e565b5b0492506040810190505b6d04ee2d6d415b85acef81000000008310612904576d04ee2d6d415b85acef810000000083816128fa576128f9613d0e565b5b0492506020810190505b662386f26fc10000831061293357662386f26fc10000838161292957612928613d0e565b5b0492506010810190505b6305f5e100831061295c576305f5e100838161295257612951613d0e565b5b0492506008810190505b612710831061298157612710838161297757612976613d0e565b5b0492506004810190505b606483106129a4576064838161299a57612999613d0e565b5b0492506002810190505b600a83106129b3576001810190505b80915050919050565b6000604051905090565b600080fd5b600080fd5b60007fffffffff0000000000000000000000000000000000000000000000000000000082169050919050565b612a05816129d0565b8114612a1057600080fd5b50565b600081359050612a22816129fc565b92915050565b600060208284031215612a3e57612a3d6129c6565b5b6000612a4c84828501612a13565b91505092915050565b60008115159050919050565b612a6a81612a55565b82525050565b6000602082019050612a856000830184612a61565b92915050565b600081519050919050565b600082825260208201905092915050565b60005b83811015612ac5578082015181840152602081019050612aaa565b60008484015250505050565b6000601f19601f8301169050919050565b6000612aed82612a8b565b612af78185612a96565b9350612b07818560208601612aa7565b612b1081612ad1565b840191505092915050565b60006020820190508181036000830152612b358184612ae2565b905092915050565b6000819050919050565b612b5081612b3d565b8114612b5b57600080fd5b50565b600081359050612b6d81612b47565b92915050565b600060208284031215612b8957612b886129c6565b5b6000612b9784828501612b5e565b91505092915050565b612ba981612b3d565b82525050565b6000602082019050612bc46000830184612ba0565b92915050565b600073ffffffffffffffffffffffffffffffffffffffff82169050919050565b6000612bf582612bca565b9050919050565b612c0581612bea565b82525050565b6000602082019050612c206000830184612bfc565b92915050565b612c2f81612bea565b8114612c3a57600080fd5b50565b600081359050612c4c81612c26565b92915050565b60008060408385031215612c6957612c686129c6565b5b6000612c7785828601612c3d565b9250506020612c8885828601612b5e565b9150509250929050565b600080fd5b600080fd5b7f4e487b7100000000000000000000000000000000000000000000000000000000600052604160045260246000fd5b612cd482612ad1565b810181811067ffffffffffffffff82111715612cf357612cf2612c9c565b5b80604052505050565b6000612d066129bc565b9050612d128282612ccb565b919050565b600067ffffffffffffffff821115612d3257612d31612c9c565b5b612d3b82612ad1565b9050602081019050919050565b82818337600083830152505050565b6000612d6a612d6584612d17565b612cfc565b905082815260208101848484011115612d8657612d85612c97565b5b612d91848285612d48565b509392505050565b600082601f830112612dae57612dad612c92565b5b8135612dbe848260208601612d57565b91505092915050565b600080600080600080600080610100898b031215612de857612de76129c6565b5b6000612df68b828c01612c3d565b985050602089013567ffffffffffffffff811115612e1757612e166129cb565b5b612e238b828c01612d99565b9750506040612e348b828c01612b5e565b9650506060612e458b828c01612b5e565b9550506080612e568b828c01612b5e565b94505060a0612e678b828c01612b5e565b93505060c0612e788b828c01612b5e565b92505060e0612e898b828c01612b5e565b9150509295985092959890939650565b600080600060608486031215612eb257612eb16129c6565b5b6000612ec086828701612c3d565b9350506020612ed186828701612c3d565b9250506040612ee286828701612b5e565b9150509250925092565b6000819050919050565b612eff81612eec565b82525050565b6000602082019050612f1a6000830184612ef6565b92915050565b600060a082019050612f356000830188612ba0565b612f426020830187612ba0565b612f4f6040830186612ba0565b612f5c6060830185612ba0565b612f696080830184612ba0565b9695505050505050565b600060e082019050612f88600083018a612ba0565b612f956020830189612ba0565b612fa26040830188612ba0565b612faf6060830187612ba0565b612fbc6080830186612ba0565b612fc960a0830185612ba0565b612fd660c0830184612a61565b98975050505050505050565b600060208284031215612ff857612ff76129c6565b5b600061300684828501612c3d565b91505092915050565b61301881612a55565b811461302357600080fd5b50565b6000813590506130358161300f565b92915050565b60008060408385031215613052576130516129c6565b5b600061306085828601612c3d565b925050602061307185828601613026565b9150509250929050565b600067ffffffffffffffff82111561309657613095612c9c565b5b61309f82612ad1565b9050602081019050919050565b60006130bf6130ba8461307b565b612cfc565b9050828152602081018484840111156130db576130da612c97565b5b6130e6848285612d48565b509392505050565b600082601f83011261310357613102612c92565b5b81356131138482602086016130ac565b91505092915050565b60008060008060808587031215613136576131356129c6565b5b600061314487828801612c3d565b945050602061315587828801612c3d565b935050604061316687828801612b5e565b925050606085013567ffffffffffffffff811115613187576131866129cb565b5b613193878288016130ee565b91505092959194509250565b600080604083850312156131b6576131b56129c6565b5b60006131c485828601612c3d565b92505060206131d585828601612c3d565b9150509250929050565b7f4e487b7100000000000000000000000000000000000000000000000000000000600052602260045260246000fd5b6000600282049050600182168061322657607f821691505b602082108103613239576132386131df565b5b50919050565b7f4e487b7100000000000000000000000000000000000000000000000000000000600052601160045260246000fd5b600061327982612b3d565b915061328483612b3d565b925082820390508181111561329c5761329b61323f565b5b92915050565b60006132ad82612b3d565b91506132b883612b3d565b92508282026132c681612b3d565b915082820484148315176132dd576132dc61323f565b5b5092915050565b60006132ef82612b3d565b91507fffffffffffffffffffffffffffffffffffffffffffffffffffffffffffffffff82036133215761332061323f565b5b600182019050919050565b60006060820190506133416000830186612bfc565b61334e6020830185612ba0565b61335b6040830184612bfc565b949350505050565b600069ffffffffffffffffffff82169050919050565b61338281613363565b811461338d57600080fd5b50565b60008151905061339f81613379565b92915050565b6133ae81612eec565b81146133b957600080fd5b50565b6000815190506133cb816133a5565b92915050565b6000815190506133e081612b47565b92915050565b600080600080600060a08688031215613402576134016129c6565b5b600061341088828901613390565b9550506020613421888289016133bc565b9450506040613432888289016133d1565b9350506060613443888289016133d1565b925050608061345488828901613390565b9150509295509295909350565b600060208284031215613477576134766129c6565b5b6000613485848285016133d1565b91505092915050565b7f4e6f20746f6b656e7320746f2077697468647261770000000000000000000000600082015250565b60006134c4601583612a96565b91506134cf8261348e565b602082019050919050565b600060208201905081810360008301526134f3816134b7565b9050919050565b600060408201905061350f6000830185612bfc565b61351c6020830184612ba0565b9392505050565b6000815190506135328161300f565b92915050565b60006020828403121561354e5761354d6129c6565b5b600061355c84828501613523565b91505092915050565b7f496e73756666696369656e742066756e647320696e20636f6e74726163740000600082015250565b600061359b601e83612a96565b91506135a682613565565b602082019050919050565b600060208201905081810360008301526135ca8161358e565b9050919050565b600081905092915050565b50565b60006135ec6000836135d1565b91506135f7826135dc565b600082019050919050565b600061360d826135df565b9150819050919050565b7f4661696c656420746f2073656e64204574686572000000000000000000000000600082015250565b600061364d601483612a96565b915061365882613617565b602082019050919050565b6000602082019050818103600083015261367c81613640565b9050919050565b7f4f7074696f6e20646f6573206e6f742065786973740000000000000000000000600082015250565b60006136b9601583612a96565b91506136c482613683565b602082019050919050565b600060208201905081810360008301526136e8816136ac565b9050919050565b7f496e73756666696369656e7420746f6b656e2062616c616e6365000000000000600082015250565b6000613725601a83612a96565b9150613730826136ef565b602082019050919050565b6000602082019050818103600083015261375481613718565b9050919050565b60008151905061376a81612c26565b92915050565b600060208284031215613786576137856129c6565b5b60006137948482850161375b565b91505092915050565b7f4f7074696f6e206e6f742061637469766520616e796d6f726500000000000000600082015250565b60006137d3601983612a96565b91506137de8261379d565b602082019050919050565b60006020820190508181036000830152613802816137c6565b9050919050565b7f4f7074696f6e206e6f7420796574206578706972656400000000000000000000600082015250565b600061383f601683612a96565b915061384a82613809565b602082019050919050565b6000602082019050818103600083015261386e81613832565b9050919050565b7f4e6f207061796f66662064756500000000000000000000000000000000000000600082015250565b60006138ab600d83612a96565b91506138b682613875565b602082019050919050565b600060208201905081810360008301526138da8161389e565b9050919050565b7f496e76616c6964206f7074696f6e20686f6c6465720000000000000000000000600082015250565b6000613917601583612a96565b9150613922826138e1565b602082019050919050565b600060208201905081810360008301526139468161390a565b9050919050565b60008190508160005260206000209050919050565b60006020601f8301049050919050565b600082821b905092915050565b6000600883026139af7fffffffffffffffffffffffffffffffffffffffffffffffffffffffffffffffff82613972565b6139b98683613972565b95508019841693508086168417925050509392505050565b6000819050919050565b60006139f66139f16139ec84612b3d565b6139d1565b612b3d565b9050919050565b6000819050919050565b613a10836139db565b613a24613a1c826139fd565b84845461397f565b825550505050565b600090565b613a39613a2c565b613a44818484613a07565b505050565b5b81811015613a6857613a5d600082613a31565b600181019050613a4a565b5050565b601f821115613aad57613a7e8161394d565b613a8784613962565b81016020851015613a96578190505b613aaa613aa285613962565b830182613a49565b50505b505050565b600082821c905092915050565b6000613ad060001984600802613ab2565b1980831691505092915050565b6000613ae98383613abf565b9150826002028217905092915050565b613b0282612a8b565b67ffffffffffffffff811115613b1b57613b1a612c9c565b5b613b25825461320e565b613b30828285613a6c565b600060209050601f831160018114613b635760008415613b51578287015190505b613b5b8582613add565b865550613bc3565b601f198416613b718661394d565b60005b82811015613b9957848901518255600182019150602085019450602081019050613b74565b86831015613bb65784890151613bb2601f891682613abf565b8355505b6001600288020188555050505b505050505050565b600081519050919050565b600082825260208201905092915050565b6000613bf282613bcb565b613bfc8185613bd6565b9350613c0c818560208601612aa7565b613c1581612ad1565b840191505092915050565b6000608082019050613c356000830187612bfc565b613c426020830186612bfc565b613c4f6040830185612ba0565b8181036060830152613c618184613be7565b905095945050505050565b600081519050613c7b816129fc565b92915050565b600060208284031215613c9757613c966129c6565b5b6000613ca584828501613c6c565b91505092915050565b600081905092915050565b6000613cc482612a8b565b613cce8185613cae565b9350613cde818560208601612aa7565b80840191505092915050565b6000613cf68285613cb9565b9150613d028284613cb9565b91508190509392505050565b7f4e487b7100000000000000000000000000000000000000000000000000000000600052601260045260246000fdfea2646970667358221220fe19f45261edb0f13848f332059e5dabb9cdcaae92cbcc8a86b0176d3eca082e64736f6c63430008140033",
  "linkReferences": {},
  "deployedLinkReferences": {}
}